:1000000005C100000C94892F0C94B42F0C94DF2FA1
:100010000C940A300C9435300C9460300C948B3076
:100020000C94B63024C1000022C1000020C10000A1
:100030001EC100001CC100001AC1000018C1000050
:1000400016C1000014C1000012C1000010C1000060
:10005000B7C100000CC100000AC100000C94E130DF
:1000600006C100000C94DD340C94133500C100006F
:10007000FEC00000FCC00000FAC00000F8C0000094
:10008000F6C00000F4C00000F2C00000F0C00000A4
:100090000C9469350C949F35EAC00000E8C000005C
:1000A000E6C00000E4C00000E2C00000E0C00000C4
:1000B000DEC00000DCC00000DAC00000D8C00000D4
:1000C000D6C00000D4C000000C94CA2A0C94F535A8
:1000D0000C942B36CCC000000C9481360C94B736AF
:1000E000C6C0000000000A0B02090C0D0E08070331
:1000F00004010000000000000000000000000000FB
:1001000000000000000000000000000000000000EF
:1001100012111000000000000000000000000000AC
:100120000000000000000000000001021020200874
:100130000810204010204080020102010804020142
:1001400001020408102040808040201008040201B1
:10015000800402018040201008040201080402010A
:100160000102040810204080010204081020408091
:1001700005050505070508080808020202020A0A23
:100180000808040404040101010101010101030341
:10019000030303030303040707070C0C0C0C0C0CEC
:1001A0000C0C0202020206060606060606060B0BE9
:1001B0000B0B0B0B0B0B000020002300260029006B
:1001C0002C002F003200000100000301060109018C
:1001D00000002200250028002B002E0031003400F2
:1001E00002010000050108010B01000021002400AC
:1001F00027002A002D003000330001010000040117
:1002000007010A013C35C8355436E03611241FBEBB
:10021000CFEFD1E2DEBFCDBF00E00CBF13E0A0E026
:10022000B2E0E0E2FFE600E00BBF02C007900D92F3
:10023000A637B107D9F72AE0A6E7B3E001C01D92BF
:10024000A634B207E1F711E0C6E0D1E000E006C055
:1002500021970109802FFE010E945D37C230D1072E
:1002600080E00807A9F70E94C62B0C948E37C8CEF1
:10027000CF92DF92EF92FF920E942B316B017C01B3
:100280008FE10E948B334091770350917803609106
:10029000790370917A03892B21F1809185039091E4
:1002A000860301969093860380938503D701C60148
:1002B000841B950BA60BB70B80937B0390937C0359
:1002C000A0937D03B0937E03C0927703D09278030E
:1002D000E0927903F0927A03FF90EF90DF90CF9055
:1002E00008958091850390918603019790938603EA
:1002F000809385034C195D096E097F0940937B0348
:1003000050937C0360937D0370937E03DDCF0F9346
:100310001F93F801D9019C91DA017C91781302C0F6
:10032000691739F0A081B181891751F01197B18314
:10033000A083FA018083D9016C931F910F910895D6
:100340001196F5CF0F931F9369B186B163FB6627B2
:1003500060F905E813E02DE833E04EE853E086FB52
:10036000882780F9D4DF69B189B162FB662760F91B
:1003700003E813E02BE833E04CE853E0881F8827BC
:10038000881FC5DF6CB18091090165FB662760F9A4
:1003900001E813E029E833E04AE853E08170B7DF71
:1003A0006CB18FB1629561700FE713E027E833E01D
:1003B00048E853E086958170AADF1F910F91089558
:1003C0001F920F920FB60F9211240BB60F922F931C
:1003D0003F934F935F936F937F938F939F93AF93CD
:1003E000BF93EF93FF9380917603811117C0AADF2B
:1003F00082E080937603FF91EF91BF91AF919F913F
:100400008F917F916F915F914F913F912F910F90BD
:100410000BBE0F900FBE0F901F9018958150E9CF23
:10042000109286031092850362E082E10E942233DB
:1004300062E08FE10E94223342E050E068E371E025
:1004400085E00E940F2F0E942B31609377037093F9
:1004500078038093790390937A038FEF9FE7A0E06E
:10046000B0E080937B0390937C03A0937D03B093D3
:100470007E030895CF92DF92EF92FF920F931F9326
:10048000F894C0907B03D0907C03E0907D03F090C3
:100490007E0378940E942B310091770310917803AA
:1004A0002091790330917A03601B710B820B930BBF
:1004B00097FF04C06FEF7FEF8FEF9FE797018601F3
:1004C000F7FE07C00027112798010C191D092E09F6
:1004D0003F0906171707280739079CF41C141D0449
:1004E0001E041F043CF090958095709561957F4F98
:1004F0008F4F9F4F1F910F91FF90EF90DF90CF9004
:100500000895C701B601F6CFF894809185039091C4
:1005100086037894089561E082E20E94223361E0CC
:1005200083E20E94223361E08CE00E942233E1E802
:10053000F0E08081887F816080830895CF93DF938E
:10054000EC0160E018161906C4F482E20E945E33E2
:1005500061E083E20E945E33BE01D7FF03C0719564
:10056000619571096F3F710519F014F06FEF70E03C
:100570008CE0DF91CF910C94E83183E20E945E33EE
:1005800061E082E2E7CF61E085E20E94223361E030
:1005900084E20E94223361E088E00E942233E1EA93
:1005A000F0E08081887F816080830895CF93DF931E
:1005B000EC0160E018161906C4F485E20E945E336F
:1005C00061E084E20E945E33BE01D7FF03C07195F3
:1005D000619571096F3F710519F014F06FEF70E0CC
:1005E00088E0DF91CF910C94E83184E20E945E3381
:1005F00061E085E2E7CF90E080E008950F931F93DC
:10060000009709F489C06115710509F485C000914E
:10061000A4021091A5022091A6023091A7020E3FDC
:100620001F4F2F4F3F4F09F068C04FEF5FEFBA01E8
:100630004093A4025093A5026093A6027093A70270
:100640004091A4025091A5026091A6027091A70268
:10065000DC011296ED91FC9180819181A281B381A0
:100660008093B0049093B104A093B204B093B30408
:1006700084819581A681B7818093AC049093AD0469
:10068000A093AE04B093AF0480859185A285B38515
:100690008093A8049093A904A093AA04B093AB04F8
:1006A00084859585A685B7858093A4049093A50439
:1006B000A093A604B093A7041092A0041092A104E2
:1006C0001092A2041092A3040E94AD0E82ED9EE04F
:1006D0009093900380938F03909392038093910360
:1006E0000E949C0D009731F421E030E03093B50476
:1006F0002093B4041F910F9108950091A4021091CA
:10070000A5022091A6023091A702DB010D931D9353
:100710002D933C93139794CF8FEF9FEFEBCF8F9256
:100720009F92AF92BF92CF92DF92EF92FF921F9370
:10073000CF93DF934B015C011091B70482E090E00E
:100740009093B5048093B40481149104A104B1047E
:1007500041F48091B704811104C08091B604C1E0D6
:100760008111C0E0C12CD12C76018091B704811198
:1007700006C08091B604811102C0CC23D9F083E079
:1007800090E09093B5048093B404CC2381F1CCE93C
:10079000DFEF111102C00E943712CE01DF91CF911D
:1007A0001F91FF90EF90DF90CF90BF90AF909F9000
:1007B0008F9008956AE070E080E090E00E945031F0
:1007C00080E1C80E87E2D81EE11CF11C8FEF88166D
:1007D0009806A806B80631F0C1E08C149D04AE045A
:1007E000BF0408F0C0E080E00E94D00DBECFD0E092
:1007F000C0E0CFCFCF92DF92EF92FF920F931F9383
:10080000CF93DF938F3F910511F008F051C02091F5
:10081000B4043091B5042330310539F02091B4048B
:100820003091B5042130310531F424E030E03093CB
:10083000B5042093B4046A017B01EC018230910578
:10084000A8F011E0AE01C701B6010E949B0DAB01FB
:10085000BC01CE011123F9F0DF91CF911F910F91CF
:10086000FF90EF90DF90CF900C9460148C01000FFC
:10087000111F01571C4FD8018D919C91892B09F3B1
:100880000E946A140297E9F6D801ED91FC91CE011D
:100890001995182FD7CF0E94821490E080E0DF9145
:1008A000CF911F910F91FF90EF90DF90CF9008951F
:1008B0008FEF9FEFF4CF80E00C94D00DCF93DF93B8
:1008C00086E090E09093B5048093B4040E94290ED2
:1008D000EC01EFE8F3E084E0DF011D928A95E9F78F
:1008E0000E94CF111092B5041092B404CE01DF9192
:1008F000CF9108958091B604089580919F04089542
:100900006093A4027093A5028093A6029093A7021D
:1009100090E080E00895E0913504F0913604A8EE6F
:10092000B9E090964D915D916D917C919397408344
:1009300051836283738394964D915D916D917C9107
:100940009797448355836683778398964D915D91FD
:100950006D917C919B9740875187628773875C96E6
:100960008D919D910D90BC91A02D84879587A68730
:10097000B78708952F923F924F925F926F927F9226
:100980008F929F92AF92BF92CF92DF92EF92FF929F
:100990000F931F93CF93DF93CDB7DEB762970FB658
:1009A000F894DEBF0FBECDBF80917604909177049E
:1009B0008130910509F081C46091660470916704EB
:1009C00080916804909169046F5F7F4F8F4F9F4FB4
:1009D0000E94542D20916A0430916B0440916C0464
:1009E00050916D040E94AB2E6093B9037093BA03CB
:1009F0008093BB039093BC0360911C0A70911D0A05
:100A000080911E0A90911F0A6093E8097093E9098A
:100A10008093EA099093EB098090200A9090210A34
:100A2000A090220AB090230A8092EC099092ED09DE
:100A3000A092EE09B092EF09C090240AD090250A46
:100A4000E090260AF090270AC092F009D092F109AE
:100A5000E092F209F092F309209168023091690264
:100A600040916A0250916B020E94AB2E2B013C0117
:100A700020916C0230916D0240916E0250916F0294
:100A8000C501B4010E94AB2E9B01AC01C301B201B0
:100A90000E94582C4B015C01209170023091710230
:100AA0004091720250917302C701B6010E94AB2EB1
:100AB0009B01AC01C501B4010E94582C6093F4095C
:100AC0007093F5098093F6099093F70920915002ED
:100AD0003091510240915202509153020E94AB2E2C
:100AE0009B01AC0160E070E0CB010E94572C6B01D0
:100AF0007C012091280A3091290A40912A0A5091BC
:100B00002B0A60914C0270914D0280914E0290919F
:100B10004F020E94AB2E9B01AC01C701B6010E949F
:100B2000572C6B017C01C092F809D092F909E09230
:100B3000FA09F092FB098090780290907902A090D7
:100B40007A02B0907B02A50194010E94A72E18168C
:100B50000CF0CAC38092FC099092FD09A092FE0994
:100B6000B092FF09209154023091550240915602F3
:100B70005091570260E070E08FE793E40E94C02C30
:100B80002091FC093091FD094091FE095091FF0927
:100B90000E94AB2E6B017C010091800210918102BA
:100BA000209182022D873091830239879B01AC010D
:100BB000B8018D8599850E94BC2C87FD14C00091D9
:100BC000840210918502809186028D879091870220
:100BD00099879601A701B8010E94A72E18161CF04C
:100BE0008601ED86F986B8018D8599850E94912D43
:100BF0006B017C019DD6811190C3C701B60153D60C
:100C000081118BC320E030E040E857E4C701B60112
:100C10000E94AB2D6B017C0120E030E0A9010E9415
:100C2000BC2C87FF7DC3C701B60190580E94282DB8
:100C300088279927861B970B81DC2091FC0930912E
:100C4000FD094091FE095091FF0960918802709161
:100C5000890280918A0290918B020E94AB2E6B01D7
:100C60007C01209158023091590240915A025091D2
:100C70005B0260E070E08FE793E40E94C02C9B0170
:100C8000AC01C701B6010E94AB2E6B017C01009143
:100C90008C0210918D02A0918E02AD87B0918F02CF
:100CA000B9879B01AC01B801CD010E94BC2C87FD26
:100CB00015C00091900210919102E0919202ED878F
:100CC000F0919302F9879601A701B801CF010E9424
:100CD000A72E18161CF08601ED86F986B8018D85C1
:100CE00099850E94912D6B017C0122D681111EC332
:100CF000C701B601D8D5811119C320E030E040E822
:100D000057E4C701B6010E94AB2D6B017C0120E0C6
:100D100030E0A9010E94BC2C87FF0BC3C701B601BC
:100D200090580E94282D88279927861B970B3EDC18
:100D30008091760490917704019709F0B8C0C09033
:100D40005C02D0905D02E0905E02F0905F02A7012D
:100D500096016091BC097091BD098091BE09909186
:100D6000BF090E94BC2C8823E9F0C701B6019BD5BE
:100D7000882309F4E4C260915C0270915D02809165
:100D80005E0290915F028FD58111E4C289819A81C0
:100D9000AB81BC818093BC099093BD09A093BE092F
:100DA000B093BF09B1DBBC01990F880B990B0E946E
:100DB000562D9B01AC01609198027091990280912F
:100DC0009A0290919B020E94AB2E6093140A70933A
:100DD000150A8093160A9093170A809194029091B5
:100DE0009502A0919602B09197028093000A909389
:100DF000010AA093020AB093030AC0906002D09047
:100E00006102E0906202F0906302A7019601609196
:100E1000C6097091C7098091C8099091C9090E94BB
:100E2000BC2C8823E9F0C701B6013DD5882309F41D
:100E30009EC2609160027091610280916202909105
:100E4000630231D581119EC28D819E81AF81B885AB
:100E50008093C6099093C709A093C809B093C909A4
:100E600009DB0E94562D20919C0230919D024091F9
:100E70009E0250919F020E94AB2E9B01AC0160E04C
:100E800070E080E89FE30E94C02C2091A002309186
:100E9000A1024091A2025091A3020E94AB2E609346
:100EA000180A7093190A80931A0A90931B0A80916A
:100EB000E8099091E909A091EA09B091EB098983C9
:100EC0009A83AB83BC838091EC099091ED09A0914A
:100ED000EE09B091EF098D839E83AF83B887409070
:100EE000F0095090F1096090F2097090F309209197
:100EF00030023091310240913202509133026981C7
:100F00007A818B819C810E94AB2E6B017C012091A8
:100F100034023091350240913602509137026D8192
:100F20007E818F8198850E94AB2E9B01AC01C70109
:100F3000B6010E94582C6B017C012091380230913F
:100F4000390240913A0250913B02C301B2010E9422
:100F5000AB2E9B01AC01C701B6010E94582C9B012E
:100F6000AC016091140A7091150A8091160A909153
:100F7000170A0E94572C69877A878B879C878090F5
:100F8000FC099090FD09A090FE09B090FF09209106
:100F9000F8093091F9094091FA095091FB09C5010E
:100FA000B4010E94572C20913C0230913D024091A7
:100FB0003E0250913F020E94AB2E6B017C012091BA
:100FC000F4093091F5094091F6095091F7096091C3
:100FD000000A7091010A8091020A9091030A0E940E
:100FE000572C9B01AC01C701B6010E94582C60939D
:100FF000040A7093050A8093060A9093070AA0E0FA
:10100000B2E0BA8BA98B88E0282E8AE0382E0989B5
:101010001A89F8013496FA8BE98BD8011C962D9128
:101020003D914D915C911F976D817E818F81988557
:101030000E94AB2E6B017C01F8012081318142813D
:10104000538169817A818B819C810E94AB2E9B01A7
:10105000AC01C701B6010E94582C6B017C01A98923
:10106000BA8954962D913D914D915C915797C3014A
:10107000B2010E94AB2E9B01AC01C701B6010E94D8
:10108000582C6B017C01E989FA8920A131A142A188
:1010900053A1C501B4010E94AB2E6D877E878F8757
:1010A000988BA989BA89DC962D913D914D915C91DF
:1010B000DF9769857A858B859C850E94AB2E9B0185
:1010C000AC016D857E858F8598890E94582C9B0187
:1010D000AC01C701B6010E94582CF10161937193D4
:1010E000819391931F012CE032E089899A89281716
:1010F000390709F08CCF809176049091770401979D
:1011000009F0C2C040916604509167046091680480
:101110007091690490E080E06DDB8091760490919D
:101120007704019709F0B0C040916E0450916F04AC
:10113000609170047091710481E090E05BDB8091BC
:10114000760490917704019709F09EC0C090B9038E
:10115000D090BA03E090BB03F090BC03E091BD03D4
:10116000F091BE034080518062807380E091ED0376
:10117000F091EE03B080A180E091B103F091B20351
:1011800000811181E091AF03F091B00311821082D0
:10119000E091E703F091E80300831183BCDBE09169
:1011A000E903F091EA030190F081E02DC082D18241
:1011B000E282F382B982AA82780109811A81005FF2
:1011C0001F4FA981BA818D909D90AD90BD90BA833B
:1011D000A983F70121913191419151917F016D01D5
:1011E000F4E0CF1AD108C301B2010E94AB2EA501D1
:1011F00094010E94582CD6016D937D938D939C93FE
:101200001397E981FA810E171F07D9F6E091AF0312
:10121000F091B00381E090E0918380838091660437
:1012200090916704A0916804B09169040196A11D92
:10123000B11D8093660490936704A0936804B093F3
:1012400069048091B9039091BA03A091BB03B09156
:10125000BC03E0917904F0917A0480839183A283A6
:10126000B38380916E0490916F04A0917004B0914B
:1012700071040196A11DB11D80936E0490936F04BB
:10128000A0937004B093710462960FB6F894DEBF19
:101290000FBECDBFDF91CF911F910F91FF90EF90C7
:1012A000DF90CF90BF90AF909F908F907F906F9086
:1012B0005F904F903F902F900895892B09F09CCB21
:1012C000E091E903F091EA030190F081E02D808143
:1012D0009181A281B381E0917904F0917A048083B5
:1012E0009183A283B38388CB80907C0290907D020F
:1012F000A0907E02B0907F02A5019401C701B601C3
:101300000E94BC2C87FD26CCC092FC09D092FD091E
:10131000E092FE09F092FF0925CCC12CD12C760178
:10132000C701B6010E94282DCB0186CCC12CD12C3F
:101330007601C701B6010E94282DCB01F8CC60913F
:101340005C0270915D0280915E0290915F02F0D22A
:10135000811111CD80915C0290915D02A0915E029D
:10136000B0915F0289839A83AB83BC830FCD609178
:101370006002709161028091620290916302D8D202
:10138000811157CD8091600290916102A09162021B
:10139000B09163028D839E83AF83B88755CD4F9202
:1013A0005F926F927F928F929F92AF92BF92CF92F5
:1013B000DF92EF92FF92CF9384E090E03DD2E9EA92
:1013C000F3E08AEDDF011D928A95E9F786E794E064
:1013D0009093B0038093AF0389E794E09093EA037E
:1013E0008093E9038AE694E09093BE038093BD0363
:1013F00085E394E09093E8038093E7038FE294E021
:101400009093EE038093ED038EE594E09093EC03CC
:101410008093EB0380E694E09093F0038093EF03D6
:1014200081E394E09093F2038093F10383E394E0EB
:101430009093F4038093F303F0931404E093130464
:10144000F093AE03E093AD0381E090E090937704D6
:10145000809376048CE394E090934D0480934C0445
:101460008CE19AE09093300480932F048CE494E014
:101470009093B2038093B1038DED92E09093B40307
:101480008093B3032BE734E030937A0420937904FC
:1014900080E090E0A0EAB1E480937204909373043A
:1014A000A0937404B09375048AE097EDA3EABBE3BC
:1014B00080936A0490936B04A0936C04B0936D04C2
:1014C00082E99CEEA0E2B2E780934E0490934F0431
:1014D000A0935004B093510480E99BE4A6EBB4E8D8
:1014E0008093520490935304A0935404B0935504F2
:1014F0008AE399E7A1EABBEF8093560490935704DF
:10150000A0935804B093590488EC92E6ACE0B9EA91
:1015100080935A0490935B04A0935C04B0935D04A1
:101520008DE993E09093AC038093AB0383E993E060
:1015300090939E0380939D0382EE92E09093940398
:1015400080939303909396038093950390939803CD
:101550008093970390939A038093990390939C03AD
:1015600080939B0384E694E09093A2038093A1036D
:101570008EE494E09093A00380939F033093A403A0
:101580002093A303E8EEF9E084E3DF011D928A953E
:10159000E9F7E6EBF9E082E3DF011D928A95E9F7CE
:1015A0008091640290916502A0916602B0916702F9
:1015B00080931C0A90931D0AA0931E0AB0931F0AE1
:1015C0008093200A9093210AA093220AB093230AC1
:1015D0008093240A9093250AA093260AB093270AA1
:1015E0008091740290917502A0917602B091770279
:1015F0008093280A9093290AA0932A0AB0932B0A71
:10160000412C512C320143944092CB095092CC0989
:101610006092CD097092CE090E948B02C1E0C09306
:10162000CF091092D0094092D1095092D20960920C
:10163000D3097092D4090E94C302C093D5091092B5
:10164000B60960915C0270915D0280915E0290919A
:101650005F0229D1882309F464C060915C02709113
:101660005D0280915E0290915F021DD1811164C084
:101670008092BC099092BD09A092BE09B092BF09A8
:1016800081E090E0A0E0B0E08093B7099093B809C2
:10169000A093B909B093BA090E94100281E0809327
:1016A000BB091092C0096091600270916102809143
:1016B000620290916302F7D0882309F446C06091DA
:1016C0006002709161028091620290916302EBD09E
:1016D000811146C0C092C609D092C709E092C809DC
:1016E000F092C90981E090E0A0E0B0E08093C109E8
:1016F0009093C209A093C309B093C4090E94100239
:1017000081E08093C509CF91FF90EF90DF90CF905B
:10171000BF90AF909F908F907F906F905F904F9011
:10172000089560915C0270915D0280915E029091DB
:101730005F02FED0811191CF80905C0290905D029B
:10174000A0905E02B0905F0293CF609160027091B2
:1017500061028091620290916302EAD08111AFCF61
:10176000C0906002D0906102E0906202F09063024B
:10177000B1CF8091CA09811117C081E08093CA0955
:101780008091CB099091CC09A091CD09B091CE095F
:101790000197A105B10541F48091CF09882321F07B
:1017A00090E080E00E949E028091D009811117C0D4
:1017B00081E08093D0098091D1099091D209A091C4
:1017C000D309B091D4090197A105B10541F48091E5
:1017D000D509882321F090E080E00E94D602809114
:1017E000B609811103C081E08093B6098091C009D8
:1017F000811103C081E08093C009089560E070E02A
:1018000080E89FE7089560E070E080E89FE7089532
:1018100060E070E080E89FEF089560E070E080E8AD
:101820009FEF089560E070E080EC9FEF089560E026
:1018300070E080EC9FEF0895F5DF6093380A7093B5
:10184000390A80933A0A90933B0AF1DF60932C0A9D
:1018500070932D0A80932E0A90932F0ACFDF609306
:10186000340A7093350A8093360A9093370ACBDF97
:101870006093300A7093310A8093320A9093330A4E
:10188000C7DF60933C0A70933D0A80933E0A9093B1
:101890003F0AC3DF6093400A7093410A8093420A73
:1018A0009093430A0895CF92DF92EF92FF92CF93E5
:1018B0006B017C01AC019B016091340A7091350A87
:1018C0008091360A9091370A0E94BC2CC1E088238F
:1018D00071F0A701960160913C0A70913D0A8091D8
:1018E0003E0A90913F0A0E94BC2C8111C0E08C2FCF
:1018F000CF91FF90EF90DF90CF9008950F931F93BB
:101900008B019C010027112720783F7701151105D5
:1019100020483F4749F4AB01BC016F77772781E04E
:10192000452B462B472B09F480E01F910F9108951A
:10193000E5CF4F925F926F927F928F929F92AF927C
:10194000BF92CF92DF92EF92FF920F931F93F89482
:1019500040908F0450909004609091047090920495
:10196000C0908304D0908404E0908504F0908604B5
:101970004130510509F0A4C09B01AC01241935097F
:101980004609570929013A0100918B0410918C04F2
:1019900020918D0430918E0448015901840C951CCE
:1019A000A61CB71C80169106A206B306A0F40091EF
:1019B0008704109188042091890430918A040F5F74
:1019C0001F4F2F4F3F4F009387041093880420939D
:1019D000890430938A0480928B0490928C04A092A4
:1019E0008D04B0928E040091870410918804209198
:1019F000890430918A048092930490929404A09276
:101A00009504B09296040093970410939804209341
:101A1000990430939A0460938F0470939004809398
:101A2000910490939204A8E8B3E1A30192010E946B
:101A300065376C0D7D1D8E1D9F1D60938304709313
:101A4000840480938504909386040091A4021091ED
:101A5000A5022091A6023091A7020F3F1F4F2F4FE2
:101A60003F4FF1F00091A4021091A5022091A6022F
:101A70003091A7020E3F1F4F2F4F3F4F89F0C0906C
:101A8000A402D090A502E090A602F090A70221E067
:101A90008C149D04AE04BF0408F420E020939F043E
:101AA00078941F910F91FF90EF90DF90CF90BF90AF
:101AB000AF909F908F907F906F905F904F90089520
:101AC0004B015C0184189508A608B708A301920190
:101AD000261B370B480B590B6415750586059705B2
:101AE000D0F082169306A406B50640F420E030E05C
:101AF000A90181149104A104B10491F4A8E8B3E10F
:101B00000E946537A7019601261B370B480B590B1E
:101B1000CA01B901C5CF82169306A406B50670F7AF
:101B2000A8E8B3E1A50194010E9465376C0D7D1D05
:101B30008E1D9F1DB5CFFDCECF93DF9300D01F929A
:101B4000CDB7DEB71C821B821A82198210929B04C9
:101B500010929C0410929D0410929E04BE016F5F2F
:101B60007F4FCE0103960E94922A69817A818B81F0
:101B70009C810E948023009761F4BE016F5F7F4FBC
:101B8000CE0103960E949E2A69817A818B819C8175
:101B90002FD50F900F900F900F90DF91CF91089558
:101BA000FF920F931F93CF93DF93082F60E070E0B5
:101BB000CB010E945031FF24F3940E946922EC0172
:101BC000892B89F010E0CE3F8FEFD80769F0002312
:101BD00061F160E070E0CB010E94503181E090E063
:101BE000892B59F322C011E026D5EC01892B21F075
:101BF000CE3F8FEFD80759F711111EC011E0229682
:101C000009F410E00E941922EC01892B21F0CE3F4B
:101C10008FEFD807E1F6111111C011E0CE3F8FEF21
:101C2000D80709F410E001110BC0CE01DF91CF916C
:101C30001F910F91FF90089511E0E4CF11E0F3CFD1
:101C400060E070E0CB010E9450311F25812F90E0B1
:101C5000C7CFCF93DF9380919F04882321F060E06A
:101C600070E0CB014DD636D6D0E0C0E0892B71F0C4
:101C70006AE070E080E090E00E94503181E090DF07
:101C800029D62196C03D27E0D20781F728D60E94A9
:101C9000D4231092B7041092B6041092B00410929C
:101CA000B1041092B2041092B3041092AC041092DA
:101CB000AD041092AE041092AF041092A8041092DA
:101CC000A9041092AA041092AB041092A4041092DA
:101CD000A5041092A6041092A7041092A0041092DA
:101CE000A1041092A2041092A3044EEF5FEF6FEFD5
:101CF0007FEF4093A4025093A5026093A6027093D5
:101D0000A70210929F04E3E9F4E028E0DF011D92AE
:101D10002A95E9F710928F04109290041092910482
:101D20001092920410928B0410928C0410928D04E5
:101D300010928E04109287041092880410928904E5
:101D400010928A04109283041092840410928504E5
:101D500010928604DF91CF9108951092C3041092DF
:101D6000C4041092C5041092C6041092C20480915B
:101D7000CB049091CC049093C1048093C004109242
:101D8000BF041092BE041092BA041092BB041092C9
:101D9000BC041092BD041092C8041092C70490E0D5
:101DA00080E00895CF92DF92EF92FF920F931F93FE
:101DB000CF938C01019709F055C02091CB0430914D
:101DC000CC048091C0049091C1044091CB04509107
:101DD000CC045093C1044093C0042817390781F004
:101DE0001092BF041092BE041092BA041092BB0469
:101DF0001092BC041092BD041092C8041092C70443
:101E00008091CB049091CC04019761F58091C70437
:101E10009091C804892B21F48091A802811112C0ED
:101E20008091C7049091C8040197E1F48091BA04AD
:101E30009091BB04A091BC04B091BD040197A10591
:101E4000B10581F41092BA041092BB041092BC0444
:101E50001092BD041092A80282E090E09093C80412
:101E60008093C7048091CB049091CC04019709F032
:101E70001CC18091E1049091E2048017910709F060
:101E800014C18091DD049091DE04A091DF04B09133
:101E9000E004009709F409C12091DC0421110DC070
:101EA0004091DD045091DE046091DF047091E00404
:101EB000452B462B472B09F4F8C02091C7043091DD
:101EC000C8042230310509F0F0C02091BE04211170
:101ED000ECC0FC01C080D180E280F3808091C2041C
:101EE000882309F4D3C08091CE049091CF04892B2C
:101EF00009F4FEC02091CE043091CF0481E022305D
:101F0000310509F080E02091CE043091CF04C1E08A
:101F10002130310549F02091CE043091CF04C1E049
:101F20002230310509F0C0E0882309F456C0209121
:101F3000D8043091D9044091DA045091DB04C701F0
:101F4000B6010E94A72E87FD14C02091D8043091BD
:101F5000D9044091DA045091DB046091C30470917C
:101F6000C4048091C5049091C6040E94BC2C87FDD6
:101F700022C02091D8043091D9044091DA045091C4
:101F8000DB04C701B6010E94A72E181634F5209174
:101F9000D8043091D9044091DA045091DB04609167
:101FA000C3047091C4048091C5049091C6040E943A
:101FB000BC2C811112C08091D0049091D104A091C9
:101FC000D204B091D304892B8A2B8B2B19F481E096
:101FD0008093BF0481E08093BE04CC2309F456C0F3
:101FE0002091D8043091D9044091DA045091DB0457
:101FF000C701B6010E94BC2C87FF14C02091D804F1
:102000003091D9044091DA045091DB046091C3040B
:102010007091C4048091C5049091C6040E94A72EBB
:1020200087FF22C02091D8043091D9044091DA046E
:102030005091DB04C701B6010E94BC2C811126C05F
:102040002091D8043091D9044091DA045091DB04F6
:102050006091C3047091C4048091C5049091C6043A
:102060000E94A72E181694F48091D0049091D10468
:10207000A091D204B091D304892B8A2B8B2B19F415
:1020800081E08093BF0481E08093BE0481E0909161
:10209000BE04911180E08093C204C092C304D09228
:1020A000C404E092C504F092C6040130110509F0A1
:1020B00067C18091C7049091C804892BD9F410920C
:1020C000CD041092BE048091A802882379F082E0AA
:1020D00090E09093C8048093C7041092A8022091C6
:1020E000CB043091CC0481E0232BE9F080E01BC0CD
:1020F00081E009CF1092A8028091CD04882349F095
:102100001092BF041092C8041092C7041092CD041C
:10211000EDCF8091CB049091CC04892BE1F080919C
:10212000BE041092BE042091C7043091C80422302E
:10213000310509F45EC088F42115310509F448C061
:102140002130310509F4F3C01092BF041092BE048F
:102150001092CD0438C081E0E6CF2330310509F478
:10216000B1C02430310581F74091BA045091BB04CD
:102170006091BC047091BD04411551056105710564
:1021800061F041505109610971094093BA045093BB
:10219000BB046093BC047093BD044091BA04509199
:1021A000BB046091BC047091BD04452B462B472BAA
:1021B000D9F42091C9043091CA042130310509F0C5
:1021C00046C01092BF041092C8041092C7040CC0FD
:1021D0008091A802882341F082E090E09093C804A7
:1021E0008093C7041092A8021092B8048091BF0493
:1021F000CEC08823C9F38091D0049091D104A091DE
:10220000D204B091D304181619061A061B060CF056
:102210007DC08091CB049091CC04019709F076C0E9
:102220008091D0049091D104A091D204B091D304B4
:102230008093BA049093BB04A093BC04B093BD04F4
:1022400083E090E09093C8048093C704CDCF409181
:10225000D4045091D5046091D6047091D704452BD5
:10226000462B472BA9F01092BF048091D404909183
:10227000D504A091D604B091D7048093BA0490936A
:10228000BB04A093BC04B093BD0481E090E0DACF1E
:10229000882399F08091A9029091AA02A091AB02A3
:1022A000B091AC028093BA049093BB04A093BC0499
:1022B000B093BD0484E090E0C5CF1092BF0482E0EB
:1022C00090E0C0CF8091BA049091BB04A091BC046F
:1022D000B091BD040097A105B10559F00197A1097E
:1022E000B1098093BA049093BB04A093BC04B0934B
:1022F000BD048091BA049091BB04A091BC04B0913C
:10230000BD04892B8A2B8B2B09F06ECF8091A902FB
:102310009091AA02A091AB02B091AC02892B8A2BBA
:102320008B2B09F44ECF81E08093BF04B3CF409153
:10233000BA045091BB046091BC047091BD04411576
:1023400051056105710561F041505109610971093B
:102350004093BA045093BB046093BC047093BD04D3
:102360004091BA045091BB046091BC047091BD04CB
:10237000452B462B472B09F037CF8111C7CF9FCF75
:102380008091B804882309F431CF8091B904CF91AA
:102390001F910F91FF90EF90DF90CF9008951092D2
:1023A000C3041092C4041092C5041092C604109283
:1023B000C2041092C8041092C7041092C104109273
:1023C000C0041092E2041092E1041092BF04109233
:1023D000BE041092BA041092BB041092BC04109276
:1023E000BD041092B9041092B8041092DD0410924A
:1023F000DE041092DF041092E0041092DC041092CC
:10240000D8041092D9041092DA041092DB0488EEFA
:1024100093E0A0E0B0E08093A9029093AA02A09379
:10242000AB02B093AC021092D4041092D504109277
:10243000D6041092D7041092D0041092D1041092B6
:10244000D2041092D3041092CF041092CE0481E0F3
:102450008093A8021092CD041092CC041092CB0469
:102460001092CA041092C90490E080E0089580910F
:10247000CB049091CC04892B19F58091A802882374
:1024800051F08091CD04811106C081E08093B904A0
:102490008093B80408952091CD043091A80281E082
:1024A00090E0332311F090E080E030E0822393232A
:1024B000892B21F01092B90481E0EACF1092B80480
:1024C000089582E090E0FA01918380838FEF9FEF7F
:1024D0000895CF93DF93EA01009711F00E94F4244E
:1024E0001982188290E080E0DF91CF910895DB019E
:1024F000009719F48FEF8C9308952EEF2C93FC0125
:102500003F96EF30F10508F034C08827E557FD4EBF
:102510008F4F0C945D37B712B512B312B112AF12D0
:10252000AB12AD12A912A712A512A2129E129A12F4
:10253000A012B91280E311968C93089589E2FBCF23
:1025400082E2F9CF11961C92089583E2F4CF81E2E2
:10255000F2CF81E1F0CF87E2EECF8AE2ECCF80E1EB
:10256000EACF84E2E8CF88E2E6CF86E2E4CF81E3F7
:10257000E2CF80E2E0CF8091EF049091F0040895E3
:102580009093F0048093EF0408958091EE040895F1
:102590009091EE04892B8093EE040895982F9095E6
:1025A0008091EE0489238093EE0408958091ED04D8
:1025B00008958091EB049091EC04089561157105E4
:1025C00059F0FB0130E020E070E060E024173507AF
:1025D00019F06115710511F0CB010895A081B18149
:1025E000A817B90709F4BF012F5F3F4F3696EECF0A
:1025F0008091F10481111CC060D266D29093E404F2
:102600008093E3040E94001D0E94121D9093E80431
:102610008093E7040E9481210E9488219093E60420
:102620008093E50481E08093F10490E080E00895D8
:1026300084EF9FEF08958F929F92AF92BF92CF92B7
:10264000DF92EF92FF920F931F93CF93DF9300D00F
:1026500000D000D01F92CDB7DEB71A861986188633
:102660001F821E821D821C821B821A821982809107
:10267000F10407EF1FEF882309F49CC08E010D5F62
:102680001F4F9E012B5F3F4FAE01495F5F4FBE0161
:10269000675F7F4F90E080E00E9405238C010097E8
:1026A00021F00596029708F0DBC029853A852115AF
:1026B000310509F402C1ED80FE804B815C81B701D8
:1026C000640F751F8F8198858617970708F4F5C0EA
:1026D000E20EF31ED7019C91903C09F07FC042307E
:1026E000510508F47BC011968C914091EF045091F4
:1026F000F004452B09F49CC0913F08F071C02CE117
:10270000290F2D3008F48BC02DE2290F203108F459
:1027100089C0903C21F48150823008F483C088E362
:10272000890F8B3008F481C097E7C92E92E1D92E2A
:10273000E1E6F2E16D817E81AE014F5F5F4F8985F9
:102740009A8519955C01C114D104A1F189809A8000
:102750008114910479F18B819C818815990508F485
:1027600087C010E000E04B815C8170E060E0C70151
:102770000E94873701151105E9F449815A8169855D
:102780007A858D819E81680F791FC501F6011995A3
:10279000E980FA800D811E812F81388549855A850F
:1027A0006FEF7FEF81E090E00E94A0228C01892BE7
:1027B00009F056C0C8012A960FB6F894DEBF0FBEC6
:1027C000CDBFDF91CF911F910F91FF90EF90DF90E0
:1027D000CF90BF90AF909F908F90089580E085CF6D
:1027E00030E020E0220F331FF901ED51FB4F019043
:1027F000F081E02D309709F497CF892F90E019955B
:10280000009709F491CFDC011296ED91FC9113979A
:102810001496CD90DC90309709F08CCF1FC021E04A
:1028200030E0E0CF22E030E0DDCF23E030E0DACF6F
:10283000D12CC12CE9E6F2E19F3F09F07BCFE0917A
:10284000E304F091E404309721F4C90104EF1FEF91
:102850000CC08FEF90E019950097A9F604EF1FEFD9
:1028600089859A85009709F4A5CF0E94F424A2CF08
:102870000E94CF238C0189859A850E94F42470E000
:1028800060E0C4010E94682398878F830E949D2284
:102890009E838D836F8178856115710559F0C8011C
:1028A0000E9480269A87898706EF1FEF892B09F0FF
:1028B00058CF59CF08EF1FEF56CF08EF1FEFD0CFFB
:1028C0002091F104222319F020E00C94171D87EFCA
:1028D0009FEF08958091EF049091F00408950E9475
:1028E0008D210E94E720F5D0E3EEF4E088E0DF01DF
:1028F0001D928A95E9F71092F10490E080E0089526
:102900000C94451F21E040E050E0BA010C94171DE3
:1029100086E090E0FA019183808390E080E0089562
:1029200047E050E065EE72E049CEDF92EF92FF9211
:102930000F931F93CF93DF938A01EC01C60FD71F2C
:10294000E090F504F090F604D9800E94B723D816E1
:10295000190678F082E090E0F801918380838EEF91
:102960009FEFDF91CF911F910F91FF90EF90DF903C
:102970000895EF2841F482E090E0F801918380838C
:1029800084EF9FEFEECF89818093F40490E001966D
:10299000F8019183808390E080E0E3CFCF93DF93D1
:1029A000EA010E94F61F882321F00E94C4230E949E
:1029B000F71F82E090E0998388838BEF9FEFDF9190
:1029C000CF910895CF93DF93EB0186E0FB01119245
:1029D0008A95E9F78FEF8883D8DD8983E7DD8A83DD
:1029E000E8DD9D838C83DF91CF910895CF93DF93B2
:1029F000EA010E94F91F811109C082E090E09983E9
:102A0000888385EF9FEFDF91CF91089590E080E07C
:102A1000B7DD81E090E09983888390E080E0F3CF98
:102A20000F931F93CF93DF93EA018C01060F171FBB
:102A30000E94F91F81110BC082E090E09983888386
:102A400085EF9FEFDF91CF911F910F910895F801CE
:102A50008181823038F082E090E0998388838EEF24
:102A60009FEFF0CF81E090E08BDD88E090E09983EC
:102A7000888390E080E0E6CFCF93DF930097D1F496
:102A8000EB01FB01329686E0DF011D928A95E9F7A2
:102A90008FEF888385E089831A820E94B7238B8316
:102AA0000E94B6239D838C8381E08E838F83DF9188
:102AB000CF910895DF91CF911ACD80E994E1909361
:102AC000F3048093F20408958091F2049091F3044A
:102AD00008951092F3041092F20408958091F50481
:102AE0009091F6040895411105C0611571058105A5
:102AF000910561F06093F5047093F6048093F704F8
:102B00009093F8044093F90481E0089580E00895DB
:102B1000FF920F931F93CF93DF938A01EC01C60FAF
:102B2000D71FF9800E94B723F816190668F082E0D3
:102B300090E0F801918380838EEF9FEFDF91CF913A
:102B40001F910F91FF9008956C817D818E819F81EF
:102B50004B81C9DF811108C082E090E0F8019183C8
:102B6000808384EF9FEFEACF89818093F40490E023
:102B70000196F8019183808390E080E0DFCFCF93CE
:102B8000DF93EA01FC01E60FF71F648175818681FE
:102B900097814381A8DF811109C082E090E0998389
:102BA000888384EF9FEFDF91CF91089581E090E0DB
:102BB0009983888390E080E0F6CFE5EFF4E04081F0
:102BC000518162817381480F511D611D711D4083C8
:102BD0005183628373830895CF93C091F4044C2F83
:102BE00050E06091F5047091F60401960E947E37E2
:102BF0008C2FE3DF1092F404CF910895009799F49D
:102C00008091F5049091F6042FEFFB012083892B2E
:102C100059F02091F40430E02F5F3F4F241735071F
:102C200019F4CB01D9CF63CC0895009799F4809122
:102C3000F5049091F6042FEFFB012083892B59F0C6
:102C40002091F40430E02F5F3F4F2417350719F42B
:102C5000CB01C2CF4CCC089523E1AC01249FC0012D
:102C6000259F900D1124E091FE04F091FF04E80FE0
:102C7000F91F238134812250310981E0223031054E
:102C800008F080E008950F931F93CF93DF93009196
:102C9000000510910105D0E0C0E080E00C171D0791
:102CA00049F491E0811190E0892FDF91CF911F913C
:102CB0000F9108958111F5CFCE01CEDF2196EECF91
:102CC000A091FE04B091FF04109729F12091000516
:102CD0003091010582179307F0F453E1589F90015A
:102CE000599F300D1124A20FB31FED91FC91119744
:102CF000309789F012968C91681768F48BE0689F82
:102D0000E00DF11D112480819181892B21F081E05A
:102D10009281491708F080E008959C0143E1429FA9
:102D2000C001439F900D1124E091FE04F091FF0437
:102D3000E80FF91F8385823091F481E090E065818E
:102D400076814091AD025091AE026417750711F47F
:102D500090E080E0892B19F081E0232B09F080E0DE
:102D60000895EF92FF920F931F93CF93DF93EA01A1
:102D7000FC01E60FF71F02811381E480F5804F2DDF
:102D80006E2DC8019DDF81110DC082E090E0998316
:102D900088838EEF9FEFDF91CF911F910F91FF906E
:102DA000EF900895C80158DF882339F082E090E061
:102DB0009983888388EF9FEFEECF1093B40200933E
:102DC000B302E092B502F092B60281E090E09983FE
:102DD000888390E080E0DFCFCF92DF92EF92FF9286
:102DE0000F931F93CF93DF937A01EC01C60FD71F88
:102DF000C090B302D090B4020091B5021091B60217
:102E0000412F602FC6015CDF811110C082E090E08D
:102E1000F701918380838AEF9FEFDF91CF911F911C
:102E20000F91FF90EF90DF90CF900895C60114DFCF
:102E3000882341F082E090E0F7019183808388EF5E
:102E40009FEFEBCF4C815D816E817F819A8189817B
:102E50008F3F41F082E090E0F701918380838EEF15
:102E60009FEFDBCFE3E1EC9D9001ED9D300D112450
:102E7000E091FE04F091FF04E20FF31F0190F08156
:102E8000E02D2BE0029FE00DF11D11240190F08157
:102E9000E02D27E0129FE00DF11D11248083918326
:102EA0008B81828343835483658376831F5F109372
:102EB000B60281E090E0F7019183808390E080E0AA
:102EC000ACCFEF92FF920F931F93CF93DF937A01D2
:102ED0008C01060F171FC091FE04D091FF042097AC
:102EE00081F021E030E0F80182819381409100057A
:102EF000509101058417950710F030E020E0232B56
:102F000071F482E090E0F701918380838EEF9FEF70
:102F1000DF91CF911F910F91FF90EF90089543E1C2
:102F2000489F9001499F300D1124C20FD31F94DE9A
:102F3000882341F082E090E0F7019183808388EF5D
:102F40009FEFE6CFF8012481358120383105C8F69E
:102F500087818111D6CF4181842F90E08F7E0097A9
:102F600041F082E090E0F7019183808386EF9FEF4C
:102F7000CFCF4F833E832D83268128871986223029
:102F800010F421E0288721E030E0F701318320832D
:102F9000BFCF88E090E0FA019183808390E080E0E9
:102FA0000895FB018FEF808381E181838FEF9FEF95
:102FB0009383828380E890E09583848316821782CE
:102FC0000895FB018FEF808391E091838283938347
:102FD000848384E3858381E090E0978386830895EA
:102FE000DF92EF92FF920F931F93CF93DF93EA014B
:102FF000FC01E60FF71F8181813071F082E090E0E3
:10300000998388838FEF9FEFDF91CF911F910F916D
:10301000FF90EF90DF90089582819381D480258185
:10302000E680F7800091FE041091FF040115110560
:1030300039F482E090E0998388838CEF9FEFE4CFAE
:1030400040910005509101058417950738F082E002
:1030500090E0998388838EEF9FEFD6CF892B39F04C
:1030600082E090E09983888386EF9FEFCDCF8D2D0E
:103070008D7FB1F72130A1F781E0D11006C091E03A
:10308000E916F10431F080E004C0E2E0EE16F1044C
:10309000D0F3882329F390E080E0DEDD882339F047
:1030A00082E090E09983888388EF9FEFADCFF801AD
:1030B000D38681E08487F686E586108A178681E0CC
:1030C00090E09983888390E080E09ECF4CE050E0D0
:1030D0006FE073E073CA8F929F92BF92CF92DF929C
:1030E000EF92FF920F931F93CF93DF93EA01FC01BE
:1030F000E60FF71F828193810481B580E091FE0481
:10310000F091FF04309791F482E090E099838883F6
:103110008CEF9FEFDF91CF911F910F91FF90EF9078
:10312000DF90CF90BF909F908F90089520910005E1
:10313000309101058217930738F082E090E099837F
:1031400088838EEF9FEFE6CF23E1289F6001299FC0
:10315000D00C1124EC0DFD1DE080F180E114F10490
:1031600099F28281081748F78BE0089F80011124AB
:10317000E00EF11EF70180819181892B29F6BB2099
:10318000E1F2F7E0BF9E40011124C4010E94BB247C
:10319000F70191838083E091FE04F091FF04EC0D30
:1031A000FD1D0190F081E02DE00FF11F80819181E4
:1031B000009739F482E090E0998388838DEF9FEF48
:1031C000A9CFA40170E060E00E9487378091FE04DF
:1031D0009091FF04C80ED91EF60180819181080FDD
:1031E000191FF801B28281E090E09983888390E012
:1031F00080E090CFAF92BF92CF92DF92FF920F9379
:103200001F93CF93DF93EA01FC01E60FF71F828142
:103210009381F4800091FE041091FF0401151105C3
:1032200081F482E090E0998388838CEF9FEFDF91B7
:10323000CF911F910F91FF90DF90CF90BF90AF90F3
:10324000089520910005309101058217930738F009
:1032500082E090E0998388838EEF9FEFE8CF2FEF95
:103260002F0D2C3FA8F723E1289F6001299FD00C48
:1032700011240C0D1D1DF80180819181892B89F687
:10328000FBE0FF9E50011124C5010E94BB24F80100
:1032900091838083E091FE04F091FF04EC0DFD1D0D
:1032A00080819181009739F482E090E0998388834E
:1032B0008DEF9FEFBCCFA50170E060E00E948737E3
:1032C000E091FE04F091FF04EC0DFD1DF28281E01F
:1032D00090E09983888390E080E0A9CFCF92DF923D
:1032E000EF92FF920F931F93CF93DF93860F971F59
:1032F000FC01028113818091FE049091FF04892BCF
:1033000081F082E090E0FA01918380838CEF9FEF5F
:10331000DF91CF911F910F91FF90EF90DF90CF90B1
:103320000895C801B0E0A0E00197A109B1098F3F5D
:103330009F4FA105B10540F082E090E0FA01918332
:1033400080838EEF9FEFE4CF7A0183E1809F60015D
:10335000819FD00C1124C6010E94BB24EC01009770
:1033600041F482E090E0F701918380838DEF9FEF3D
:10337000CFCFA60170E060E00E948737D093FF04B2
:10338000C093FE04109301050093000590E080E0D7
:103390002FEF3FEF41E061E070E08017910741F4CB
:1033A00081E090E0F7019183808390E080E0B0CFEE
:1033B0003A8B298B1B864C877E876D87188A1F86E0
:1033C00001966396EACFCF92DF92EF92FF920F932E
:1033D0001F93CF93DF93EC01D12CC12C10E000E0C0
:1033E000F12CE12C6A816017110609F0CCF483E01E
:1033F000689FB0011124AE014F5E5F4FC7010E946C
:103400002025009721F02FEF3FEF3A8B298BDF919A
:10341000CF911F910F91FF90EF90DF90CF90089583
:10342000E881F981EC0DFD1D438154818D859E85D8
:10343000489F9001499F300D589F300D1124C901BC
:1034400001960115110519F44F8144FD049661E0C0
:1034500070E00E946823E816F90608F47C010F5F0B
:103460001F4F8BE0C80ED11CBDCFF8942091FC04F7
:103470003091FD0481E02115310509F080E0232B16
:1034800009F0789408952F923F924F925F926F9235
:103490007F928F929F92AF92BF92CF92DF92EF92E4
:1034A000FF920F931F93CF93DF933C01660E771E1D
:1034B000F301828193814C01B12CA12CC091FE04B7
:1034C000D091FF04209769F021E030E06091000581
:1034D000709101058617970710F030E020E0232B4C
:1034E000D1F482E090E0FA01918380838EEF9FEF28
:1034F000DF91CF911F910F91FF90EF90DF90CF90D0
:10350000BF90AF909F908F907F906F905F904F9003
:103510003F902F9008958092B7029092B802A092A7
:10352000B902B092BA0263E1689F9001699F300DC1
:103530001124C20FD31FF3018181833040F082E058
:1035400090E0FA019183808386EF9FEFD1CF2A012B
:103550002B813C81232BF1F4288139819F8191FFBC
:103560002EC0232B09F46FC0209103059A81422FAE
:10357000490F5527551FBA0141E050E061387105E8
:1035800014F050E040E0452B09F45DC02A87920F0B
:10359000909303058150823008F481C066DF882350
:1035A00009F4D8C0F3018181813009F48DC008F499
:1035B0007BC0823009F4C6C090E080E0ADC0232B10
:1035C00009F441C0209102059A81E22FE90FFF27FB
:1035D000FF1F41E050E0ED3FF10514F050E040E006
:1035E000452B89F12A87920F90930205D3CFA081B2
:1035F000B181A20FB31F11966C91060F111D019698
:10360000295F3F4F8417950794F38D859E85089F0A
:103610001001099F300C189F300C1124C114D104E3
:10362000D1F48F8184FF17C00E94B623F5E02F0EDE
:10363000311C21E08215930508F420E0A701455FC5
:103640005F4F21110EC082E090E0F20191838083F0
:1036500087EF9FEF4DCF0E94B6232FEF221A320A39
:10366000E8CF88819981E80EF91EF701148303835E
:10367000FFEFCF1ADF0A7A018A818C151D0409F049
:103680000CF48CCFE881F981EE0DFF1D428150E0F2
:1036900030E020E010E000E090E080E0B3CFF12CDB
:1036A000E12CD12CC12CE8CF81E090E09C838B836E
:1036B000EADA882309F480CF81E090E00E94C0120A
:1036C00080E40E94CE1278CF89899A89019661F0B0
:1036D00083E090E09C838B8382E090E00E94C012A4
:1036E00080E40E94C81268CF8D819E812091AD0236
:1036F0003091AE0282179307D1F46091B1027091BC
:10370000B202AE014F5E5F4F8091AF029091B00266
:103710000E943F260097E1F2789422E030E0F20127
:1037200031832083892B99F08DEF9FEFE1CE89289B
:103730008A288B2869F6029758F6CE0144DE188A4B
:103740001F86E8CF82E090E09C838B8335CF90E0AA
:1037500080E0CECE82E090E0F2019183808385EF1D
:103760009FEFC6CE8F929F92AF92BF92CF92DF9281
:10377000EF92FF920F931F93CF93DF93EA018C0197
:10378000060F171FF8018181833098F082E090E0E6
:103790009983888386EF9FEFDF91CF911F910F91DF
:1037A000FF90EF90DF90CF90BF90AF909F908F9061
:1037B00008958091FE049091FF04892B61F081E0CF
:1037C00090E02091000530910105232B11F490E049
:1037D00080E0892B39F482E090E0998388838EEF32
:1037E0009FEFDACF42DE882309F4E0C0F80181813F
:1037F000813009F496C0E8F0823099F420910005F8
:1038000030910105E091FE04F091FF0490E080E02A
:1038100041E050E02817390709F0BEC034DA8111C1
:1038200017C0789481E090E09983888390E080E0ED
:10383000B3CF2091000530910105E091FE04F09195
:10384000FF0490E080E041E050E02817390741F4A0
:1038500081E090E00E94C01280E40E94CE12E1CF8D
:1038600063817481672B11F05483438301967396AF
:10387000ECCFE091FE04F091FF04E00FF11F2381F3
:10388000348122303105D9F4218932892F3F3F4FCD
:10389000B1F4258136814091AD025091AE022417DA
:1038A000350761F5AF014F5E5F4F6091B1027091D6
:1038B000B2028091AF029091B0020E943F26EFEFDA
:1038C000CE1ADE0AEE0AFE0A0D5E1F4F4091000579
:1038D0005091010570E060E0C416D506E606F706D3
:1038E00044F5009731F27894892B09F49BCF82E05C
:1038F00090E0998388838DEF9FEF4ECFC114D10460
:10390000E104F104E1F622303105C8F6CF015BDDB8
:10391000E091FE04F091FF04E00FF11F108A17867A
:10392000CECF10E000E090E080E0C12CD12C7601F9
:10393000CDCF0097C1F610E000E0812C912C54010E
:1039400083E0E82EF12C1AC0E091FE04F091FF0410
:10395000E00FF11F83819481029749F4F482E3829E
:1039600082E090E00E94C01280E40E94C812FFEF43
:103970008F1A9F0AAF0ABF0A0D5E1F4F8091000584
:1039800090910105B0E0A0E088169906AA06BB0652
:10399000DCF290E080E0A7CF638174816230710532
:1039A00011F4548343830196739634CF82E090E000
:1039B0009983888385EF9FEFEFCE0097B9F48FEF5F
:1039C000FB0180832091B7023091B80243E1429F0E
:1039D000C001439F900D1124E091FE04F091FF047B
:1039E000E80FF91F8285FB01818308950C947712FB
:1039F00088E090E0FA019183808390E080E0089570
:103A00001092FD041092FC04EEEFF4E086E0DF017A
:103A10001D928A95E9F786E698E19093FB048093DE
:103A2000FA0408958091FA049091FB0408952F926E
:103A30003F924F925F926F927F928F929F92AF923E
:103A4000BF92CF92DF92EF92FF920F931F93CF938B
:103A5000DF93CDB7DEB760970FB6F894DEBF0FBE29
:103A6000CDBFF894E091FC04F091FD043196F09301
:103A7000FD04E093FC047894A091FE04B091FF044F
:103A8000BA83A983109709F4FAC1E0910005F09177
:103A90000105EF2B09F4F3C128874B875C876D87FD
:103AA0007E879A878987B88BAF87312C212CF12CA0
:103AB000512C412C80910005909101052816390662
:103AC00010F4FF2029F1F8948091FC049091FD04FA
:103AD00001979093FD048093FC047894C201609652
:103AE0000FB6F894DEBF0FBECDBFDF91CF911F910F
:103AF0000F91FF90EF90DF90CF90BF90AF909F908D
:103B00008F907F906F905F904F903F902F9008958F
:103B1000B10190E080E088D4682EEF85F889878134
:103B200081FD3DC0838194810397C9F5258136814C
:103B30003C832B8389859A852817390781F5C10134
:103B4000ECD8782E8823A9F1AF85B8891F968D917E
:103B50009C915097019621E01D964D915C918417A0
:103B6000950709F020E02F83B12CA12CEF85F8896F
:103B700082818A151B0419F014F0FF20E9F0F88502
:103B8000FF2309F46CC1AF85B88950961C921E9230
:103B90001F97662021F0B10190E080E047D4FFEF4D
:103BA0002F1A3F0A2F8538892D5E3F4F388B2F877C
:103BB00081CFB1E0BF83D8CFC0D49E838D83E88509
:103BC000EE23E9F0772009F43CC1AF85B8891F9650
:103BD0008D919C91892B79F0BBE0BA9DC001BB9D72
:103BE000900D1124AF85B889ED91FC91E80FF91F74
:103BF00085819681F9D6BFEFAB1ABB0AB7CF81E0BA
:103C0000772039F0EF85F88927853089232B09F053
:103C100080E0F82EE12CA114B10439F4AF85B88905
:103C20001796EC90E4FAEE24E0F8BBE0BA9D600150
:103C3000BB9DD00C1124882309F424C1AF85B88919
:103C4000ED91FC911197EC0DFD1D438154811D9662
:103C50002D913C91429FC001439F900D529F900D2A
:103C60001124E1105DC001969087878361E070E0C8
:103C7000878190852DD5EF85F8892189328900814A
:103C800011810C0D1D1D2F3F320709F44BC0BC01E3
:103C9000C9010E948026D80116969C938E93159791
:103CA000AF85B889ED91FC911197EC0DFD1D058153
:103CB00016810115110509F4CDC0ED81FE810E0FAD
:103CC0001F1F1A968C918A0DD8018C93E1102FC07A
:103CD0000F5F1F4FAF85B889ED91FC91EC0DFD1D75
:103CE00012870187AF85B889ED91FC91EC0DFD1D20
:103CF00085819681892B09F4A4C08091AD029091B1
:103D0000AE022B813C812817390709F465C0772062
:103D100011F001851285912C812C1A8219824AC0DA
:103D20000596A2CF28D6F80196838583B9CF8B85D7
:103D30009C85AD85BE85F80181839283A383B4837E
:103D40000B5F1F4FC7CFE080F180E80CF91CD70153
:103D500013966D917C9114978C918F3F09F473C0E9
:103D6000E1E0F0E002C0EE0FFF1F8A95E2F7CF011D
:103D7000092E000CAA0BBB0BFB0140815181628113
:103D8000738184239523A623B72321E0892B8A2BD3
:103D90008B2B09F420E0D8012C93D70111968C913C
:103DA000080F111DE981FA813196FA83E983F7E062
:103DB0008F0E911CAF85B889ED91FC91EC0DFD1D26
:103DC000828129813A818217130611F00CF0BBCF52
:103DD000772011F0128701873F81332391F1AF855E
:103DE000B889ED91FC91EC0DFD1D61E070E08781DB
:103DF00090856ED4AF85B889ED91FC91EC0DFD1DD9
:103E0000E780F08445815681E1E0F0E0662011F022
:103E1000F0E0E0E00D811E819C01B1018827992727
:103E20008E1B9F0B8DD32C01892B59F0EF85F889C0
:103E300080819181C80ED91ED60115968D919C91D5
:103E4000D3D5F12CD8CEF701418150E0C8010E94B2
:103E50007E37A3CF86EF482E55245A94CCCEEF85DB
:103E6000F889878590890196908B87872585368587
:103E70008217930709F08DCE108A17868ACE512CAF
:103E8000412C21CE10E000E02DCF2F923F924F9297
:103E90005F926F927F928F929F92AF92BF92CF92DA
:103EA000DF92EF92FF920F931F93CF93DF93809156
:103EB000FE049091FF0410E000E0892BA9F0D5DA10
:103EC0000AEF1FEF882381F0209000053090010554
:103ED000C091FE04D091FF04D12CC12C10E000E071
:103EE0002C143D04A9F47894C801DF91CF911F915F
:103EF0000F91FF90EF90DF90CF90BF90AF909F9089
:103F00008F907F906F905F904F903F902F9008958B
:103F1000C6010E948D16882309F18B819C8103972D
:103F2000E9F48F859889892BC9F0B60190E080E08B
:103F30007BD221E030E0882311F030E020E04424FF
:103F40005524421A530AB12CA12C912C812C8A8120
:103F50008815190409F038F4188A1F864FEFC41A1F
:103F6000D40A6396BDCFE881F981EA0DFB1D8581F6
:103F70009681892BA1F161E070E087819085A8D3BB
:103F80003C01DBD28C01E881F981EA0DFB1D8185C2
:103F9000928525813681200F311FAC01421B530BC6
:103FA0009A0147815085421B530B70E060E00E94EC
:103FB0008737E881F981EA0DFB1DE780F0844581B0
:103FC00056819301B601C201BBD28C01892B39F015
:103FD000E881F981EA0DFB1D8581968105D55FEFAA
:103FE000851A950A8BE0A80EB11CB1CF3ECA789411
:103FF00008952F923F924F925F926F927F929F927D
:10400000AF92BF92CF92DF92EF92FF920F931F93E6
:10401000CF93DF9300D000D0CDB7DEB70091FE0480
:104020001091FF04992493940115110509F43EC0E1
:10403000A0900005B090010518DA982E8823B1F100
:104040001092FF041092FE041092010510920005D8
:1040500010920205109203058FEF9FEFDC01809311
:10406000B7029093B802A093B902B093BA027894C1
:104070007FD31E830D83C12CD12C7601C501B0E006
:10408000A0E089839A83AB83BC8322242A94322CB8
:1040900089819A81AB81BC81C816D906EA06FB06E4
:1040A000F4F0C801A1D480E40E94CE12892D269696
:1040B0000FB6F894DEBF0FBECDBFDF91CF911F9139
:1040C0000F91FF90EF90DF90CF90BF90AF909F90B7
:1040D0007F906F905F904F903F902F900895AD81AB
:1040E000BE8115968D919C9116972091AD023091CD
:1040F000AE0282179307D1F451968D919C91EED523
:10410000ED81FE8180819181B12CA12C412C512C1B
:104110003201892B89F5BFEFCB1ADB0AEB0AFB0AC8
:10412000ED81FE817396FE83ED83B2CFC114D1047D
:10413000E104F10429F7029718F7ED81FE818189E6
:1041400092898F3F980709F029D5AD81BE8152969B
:104150003C922E925197D4CF8A0D9B1DDC018D91FC
:104160009C91009709F040D4BFEF4B1A5B0A6B0A91
:104170007B0AEBE0AE0EB11CAD81BE818D919C91AE
:10418000119712964C9150E070E060E0441655068D
:10419000660677060CF328D4BECFCF93DF93EA01EF
:1041A00028DF811109C082E090E09983888385EF40
:1041B0009FEFDF91CF91089581E090E00E94C012BF
:1041C00081E090E09983888390E080E0F2CF11DF76
:1041D0001092FB041092FA04089542E050E067E563
:1041E00073E00C94DE12FF920F931F93CF93DF9333
:1041F0008A01EC01C60FD71FF980B9D20897F816CB
:10420000190671F068F082E090E0F80191838083F4
:104210008EEF9FEFDF91CF911F910F91FF90089547
:104220006C817D818E819F814B810E9473158111EC
:1042300008C082E090E0F8019183808384EF9FEFD3
:10424000E9CFF9800E946E154F2D50E0BE01685FE6
:104250007F4F0E947E3789810E94DD1581E090E0CA
:10426000F8019183808390E080E0D4CFDF92EF92D9
:10427000FF920F931F93CF93DF938A01EC01C60F38
:10428000D71F0E946E157C01D98071D2DD2059F0B4
:10429000029721E030E0D816190619F010F030E04E
:1042A00020E0232B79F482E090E0F8019183808371
:1042B0008EEF9FEFDF91CF911F910F91FF90EF90C5
:1042C000DF900895EF2841F482E090E0F8019183B7
:1042D000808384EF9FEFEECFF9800E946E154F2D03
:1042E00050E0BE016E5F7F4F0E947E3789810E9441
:1042F000DD1581E090E0F8019183808390E080E01B
:10430000D9CF8DEE90E29093050580930405089532
:10431000809104059091050508950895FC0111828E
:104320001082938382830895DB011D921C92DC012D
:104330001296ED91FC9113977183608313967C9391
:104340006E9312970895FC0180819181DB018D931A
:104350009C93A081B181109741F08D919C919183A4
:104360008083892B11F4F383E2830895FC0180811B
:104370009181DB018D939C93892B11F4738362836C
:10438000718360830895FC0111821082938382837C
:104390000895CF93DF931F921F92CDB7DEB71A8295
:1043A0001982F894BE016F5F7F4F8BE095E0CBDF01
:1043B00089819A81009709F017D389819A81892B85
:1043C00089F7BE016F5F7F4F8FE095E0BCDF898189
:1043D0009A81009709F008D389819A81892B89F7FE
:1043E00078940F900F90DF91CF910895CF93DF9342
:1043F0001F921F92CDB7DEB71A821982F894BE01C0
:104400006F5F7F4F87E095E09EDF89819A810097FB
:1044100009F0EAD289819A81892B89F778940F90E3
:104420000F90DF91CF91089581E0089590E080E0B2
:104430000895EF92FF920F931F93CF93DF931F92F4
:104440001F92CDB7DEB71A8219828091060507EF59
:104450001FEF8823A1F1F894BE016F5F7F4F8FE0BB
:1044600095E071DF789489819A81EE24E394F12CB0
:10447000892B51F4F894BE016F5F7F4F8BE095E07C
:1044800062DF7894F12CE12C89819A810EEF1FEF85
:104490000097A9F0FC014281538164E070E076D678
:1044A0008C01892B61F0F89469817A81C701880FAA
:1044B000991F880F991F855F9A4F58DF7894C8011C
:1044C0000F900F90DF91CF911F910F91FF90EF9080
:1044D00008950F931F93CF93DF9300D01F92CDB712
:1044E000DEB71C821B821A8219828091060507EFB3
:1044F0001FEF8823C1F0AE014D5F5F4F64E070E0B5
:10450000CE010196B6D68C01892B69F4E981FA8136
:104510008B819C8193838283F89469817A8187E07F
:1045200095E002DF7894C8010F900F900F900F90E4
:10453000DF91CF911F910F910895BBD704960895F5
:104540008F929F92AF92BF92CF92DF92EF92FF92A3
:104550000F931F93CF93DF931F921F92CDB7DEB7B8
:104560001A821982BC016F5F7F4F6330710598F02A
:10457000AA24AA94BA2CC5010F900F90DF91CF9175
:104580001F910F91FF90EF90DF90CF90BF90AF9071
:104590009F908F9008954115510551F3480159019D
:1045A0008A016C01CADF8815990511F7E114F1043D
:1045B000F9F28E0D9F1DA816B906D0F2809106055E
:1045C0008823F1F0F894B501645071099701AE01A8
:1045D0004F5F5F4FC8010496E1D65C01892B71F4EF
:1045E00089819A81F80193838283C601880F991F7C
:1045F000880F991FB801855F9A4F96DE7894BBCFDC
:1046000087EFA82EBB24BA94B6CFAF92BF92CF92B9
:10461000DF92EF92FF920F931F93CF93DF931F923E
:104620001F92CDB7DEB71A821982892B09F047C0D5
:104630006115710509F443C04115510509F43FC0E6
:104640002115310509F43BC001151105C1F1809117
:1046500006058823B9F179016A015B01F894BE016E
:104660006F5F7F4F87E095E06EDE789489819A8155
:10467000009759F1DC0112966D917C91A801049686
:10468000A6D68C01E981FA81D501ED93FC93828154
:1046900093810496F601918380834FDFD7018D9338
:1046A0009C93C8010F900F90DF91CF911F910F91B4
:1046B000FF90EF90DF90CF90BF90AF9008950FEFF5
:1046C0001FEFEFCF07EF1FEFECCF0EEF1FEFE9CF9C
:1046D000CF93DF93EC01672B71F4F4D68C179D0711
:1046E00060F0E7D62496C80FD91FE6D68C0F9D1F21
:1046F000DF91CF910895E3D6F1CF90E080E0F8CF3D
:104700000F931F93CF93DF932091060521112BC0A8
:104710008B01EC018BE095E001DE8FE095E0FEDDA2
:1047200087E095E0FBDD97D00097C1F4CBD670E031
:1047300060E0CEDF4BEB52E062E070E081D10097A9
:1047400069F48091BB029091BC02CED6B801CE0133
:1047500003D5009719F421E020930605DF91CF914E
:104760001F910F91089584EF9FEFF8CFA8C6AAC6B6
:10477000CF93DF93AAD6EC01892B11F40ADE36DE43
:10478000CE01DF91CF910895CF93DF939ED6EC01B8
:10479000892B09F4FEDDCE01DF91CF910895809140
:1047A000BB029091BC020895CF93DF9380910605E0
:1047B000D0E0C0E08823D1F09CD6EC01892BB1F485
:1047C000E8DD14DE8091BB029091BC02E7D1E8D213
:1047D000EC01892B59F48BE095E0D5DD8FE095E075
:1047E000D2DD87E095E0CFDD10920605CE01DF91A6
:1047F000CF910895EF92FF920F931F93CF93DF9382
:10480000EC017A018B010F5F1F4F0E9DA0010F9DE0
:10481000500D1E9D500D112470E060E00E948737FE
:1048200090E080E0F0E0E0E02FEFE816F90639F4E0
:10483000DF91CF911F910F91FF90EF9008951A8211
:1048400019822883309711F0D283C1830196FE012B
:10485000C00FD11FEACFCF92DF92EF92FF920F935A
:104860001F93CF93DF930CE616E00C7F43E050E0FC
:104870006DEB72E083EC92E01CD48DEBE82E82E0CD
:10488000F82E93ECC92E92E0D92ECBEFD6E0D701CB
:104890004D915D917D01F601619171916F011983D7
:1048A00008835D834C835B834A837F836E839B0194
:1048B0002F5F3F4F249FC001259F900D349F900D87
:1048C0001124998788870115110511F0C80192DF1D
:1048D00088859985080F191F2A96F3ECEF16F2E0E8
:1048E000FF06A9F6E5E1F5E084E591E0DF019C0132
:1048F0001D9221503040E1F71092140510921305DB
:1049000010921A071092190710921E0710921D0795
:1049100010921C0710921B071092200710921F077D
:104920001092220710922107109224071092230759
:104930001092280710922707109226071092250739
:1049400010922A071092290710922C0710922B0719
:104950001092F8061092F7061092FA061092F906D5
:1049600090E080E0DF91CF911F910F91FF90EF9049
:10497000DF90CF9008950097F1F0F894A3ECB2E0A7
:10498000EBEFF6E030E020E04D915D9148175907DC
:10499000A8F0428153814115510581F08AE0829F40
:1049A000F001839FF00D1124E550F94F8081918132
:1049B000009759F4789490E080E008952F5F3F4F7E
:1049C0003A962330310501F7F5CFDC0111966D9150
:1049D0007C91718360834150510953834283FC0170
:1049E0002193CF0178940895009749F1DC018E91CD
:1049F000853041F4E091F906F091FA063097F9F02C
:104A0000CD0119948530D8F4282F30E0F8948FEF39
:104A10008C938AE0829FF001839FF00D1124E55072
:104A2000F94F8081918112969C938E931197B18357
:104A3000A0838281938101969383828378940895E1
:104A4000CF92DF92EF92FF920F931F93CF93DF935A
:104A50009C0188E195E08C7F4115510509F49BC0CC
:104A60002115310509F497C06115710509F493C04A
:104A70007A01AB01B9016D5F7F4F6C7F9B012F5FA6
:104A80003F4F249F8001259F100D349F100D11244E
:104A9000F8942091190730911A07232B59F420918B
:104AA0002107309122072115310569F120173107BF
:104AB00008F058C02091230730912407232B91F44C
:104AC0002091210730912207820F931F20912B07FD
:104AD00030912C072115310509F441C02017310709
:104AE00008F056C07894CFEFDFEF86EF9FEFF70125
:104AF000D183C083DF91CF911F910F91FF90EF90F1
:104B0000DF90CF900895C3E0D0E0C0901305D0901F
:104B1000140521E531E02C193D092017310710F368
:104B20002AE02C9FF0012D9FF00D1124E550F94F44
:104B30009183808355834483538342837783668341
:104B400011870087009709F055DE0C0D1D1D10938D
:104B5000140500931305789490E080E0C8CFC4E07A
:104B6000D0E0D3CFC3E0D0E02AE02C9FF0012D9F0E
:104B7000F00D1124E550F94F9183808355834483D0
:104B80005383428377836683009729F333DEE3CF31
:104B9000C4E0D0E0E9CF8FEF9FEFACCF9C0103974B
:104BA000029708F069C0F89484E09AE0482F50E03A
:104BB000241735070CF44DC091E08AE0829FF00184
:104BC000839FF00D1124E550F94F11821082158258
:104BD000148213821282178216829923B1F1809176
:104BE000190790911A07892BA9F420912107309178
:104BF00022072115310571F080911305909114055C
:104C0000821B930B90931405809313051092220737
:104C1000109221078091230790912407892BA9F4F2
:104C200020912B0730912C072115310571F08091CF
:104C3000130590911405821B930B90931405809398
:104C4000130510922C0710922B07789490E080E0C7
:104C50000895949FF001959FF00D1124E550F94FB0
:104C600040815181452B31F440855185452B11F40C
:104C700081509CCF90E0A1CF8FEF9FEF0895411519
:104C8000510549F1009739F16115710521F1F89449
:104C90002091F7063091F806232BB9F42091F906FC
:104CA0003091FA06232B89F49093F8068093F70647
:104CB0007093FA066093F906789425E030E090E06E
:104CC00080E0FA0131832083089578942FEF3FEF3D
:104CD00086EF9FEFF6CF8FEF9FEF0895059769F46A
:104CE000F8941092F8061092F7061092FA061092B5
:104CF000F906789490E080E008958FEF9FEF089593
:104D00006115710519F4F0E0E0E011C085309105FE
:104D100081F4E091F706F091F8063097A1F3CB010A
:104D200001961995009779F3FC0185E08193CF01F5
:104D300008959C01235031092230310520F72AE0E3
:104D4000289FD001299FB00D1124A550B94F2D9156
:104D50003C911197232BB9F216962D913C91179700
:104D60002617370780F2F89412962D913C911397ED
:104D70002115310529F0ED91FC911197309711F42F
:104D80007894C1CF4181528111965C934E9321500A
:104D9000310913963C932E93129781937894C7CF41
:104DA000E9E6F6E08EE8DF011D928A95E9F7E5E194
:104DB000F5E084E591E0DF019C011D922150304037
:104DC000E1F71092140510921305EBEFF6E082E381
:104DD000DF011D928A95E9F7E7EFF6E084E0DF0155
:104DE0001D928A95E9F790E080E00895CF93DF93D4
:104DF000C091C902D091CA02CF3FDC0759F435D423
:104E00009093CA028093C90297FF09C0D093CA0247
:104E1000C093C90284EF9FEFDF91CF91089590E096
:104E200080E0FACF8230910528F480932D0790E03E
:104E300080E008958FEF9FEF08954F925F926F92F9
:104E40007F92AF92BF92CF92DF92EF92FF920F9339
:104E50001F93CF93DF931F921F92CDB7DEB71A82B5
:104E60001982009709F479C06115710509F475C0BC
:104E70002091C9023091CA0207EF1FEF2F3F3F4F29
:104E800009F445C06B015C01412C512C3201F12C1D
:104E9000E12C10E000E09E012F5F3F4FA6014E196C
:104EA0005F09B5016E0D7F1D8091C9029091CA0204
:104EB00040D4892B09F04BC089819A81009741F435
:104EC000E114F10429F420912D07222309F442C0B2
:104ED000E80EF91EEC14FD04D0F480E8481684E8CE
:104EE00058068EE16806710420F560E070E0CB01A1
:104EF0000E9450312AE0420E511C611C711C0A3F75
:104F00004FEF140721F0043F8FEF1807A1F4C801F9
:104F10000F900F90DF91CF911F910F91FF90EF9025
:104F2000DF90CF90BF90AF907F906F905F904F9049
:104F3000089501EF1FEF81E090E0013F2FEF12078E
:104F400011F090E080E0892B09F4A5CFE0CF04EFC9
:104F50001FEFDDCF0AEF1FEFDACF0FEF1FEFD7CF35
:104F60004F925F926F927F92AF92BF92CF92DF92F9
:104F7000EF92FF920F931F93CF93DF931F921F9295
:104F8000CDB7DEB71A821982009709F479C061158E
:104F9000710509F475C02091C9023091CA0207EF6A
:104FA0001FEF2F3F3F4F09F445C06B015C01412CBF
:104FB000512C3201F12CE12C10E000E09E012F5F1A
:104FC0003F4FA6014E195F09B5016E0D7F1D8091FF
:104FD000C9029091CA0260D3892B09F04BC0898124
:104FE0009A81009741F4E114F10429F420912D07EE
:104FF000222309F442C0E80EF91EEC14FD04D0F49B
:1050000080E8481686E9580688E96806710420F5A4
:1050100060E070E0CB010E9450312AE0420E511C4A
:10502000611C711C0E3F4FEF140721F0043F8FEFFE
:105030001807A1F4C8010F900F90DF91CF911F9135
:105040000F91FF90EF90DF90CF90BF90AF907F9047
:105050006F905F904F90089502EF1FEF81E090E016
:10506000023F2FEF120711F090E080E0892B09F446
:10507000A5CFE0CF04EF1FEFDDCF0EEF1FEFDACFAC
:105080000FEF1FEFD7CF8091C9029091CA028F3FD7
:10509000980749F0E2D2892B49F48FEF9FEF909364
:1050A000CA028093C90290E080E0089584EF9FEFE8
:1050B0000895CF92DF92EF92FF920F931F93CF93B9
:1050C000DF9321E04115510509F020E041505109DD
:1050D00021112CC0DC01FB01D12CC12C21E022C00C
:1050E0003FEFC31AD30A7D010D911D91E701EA80BC
:1050F000FB80E016F106A8F420813181E280F38084
:10510000F182E08233832283ED90FC9011979D0120
:1051100022503109E901F982E88211961C930E931D
:1051200020E03296C416D506D8F2D2CFDF91CF91C7
:105130001F910F91FF90EF90DF90CF900895FC01A9
:10514000680F791F90E080E0E617F70709F40895EB
:105150002191820F911DF8CF20912E07211113C0AC
:1051600045DE009791F410923407109233071092A5
:105170003207109231071092300710922F0721E06A
:1051800020932E07089584EF9FEF0895AF92BF926A
:10519000CF92DF92EF92FF920F931F93CF93DF9303
:1051A000009709F460C04630510508F45CC02091B6
:1051B0002E07C7EFDFEF222309F449C08C01060F49
:1051C000171FF801C080D180C114D10409F44EC06A
:1051D00096012A5F3F4F4217530708F447C07C01EE
:1051E000809133079091340793838283B6016C5F7B
:1051F0007F4F5801A60EB71EC801A1DFF5019183AC
:10520000808364E070E0C80118DEEC01892BF9F4BA
:1052100081E090E007DEB601C80104960EDEEC01E5
:10522000892B91F462E070E0C50107DEEC01892B67
:1052300059F4C701D9DB8091330790913407019667
:10524000909334078093330790E080E0EBDDCE014C
:10525000DF91CF911F910F91FF90EF90DF90CF9052
:10526000BF90AF900895CFEFDFEFF1CFC9EFDFEF41
:10527000EECF6F927F928F929F92AF92BF92CF921A
:10528000DF92EF92FF920F931F93CF93DF9300D0A3
:105290001F92CDB7DEB7009709F47AC041155105CA
:1052A00009F476C020912E0707EF1FEF222309F49F
:1052B0004DC03A017B015C0164E070E0CE010196D3
:1052C0004FDE8C01892B09F041C009811A8101153B
:1052D000110509F45AC0480186E0880E911CB701F7
:1052E000680D791D8091CB029091CC0209DD6C0193
:1052F000009709F450C0A70170E060E00E94873772
:1053000089819A81AB81BC81EC0CFD1CF7018193F2
:105310009193A193B1937F0181E090E083DDB80187
:10532000C7011EDE892B31F562E070E0C701800FF6
:10533000911F16DE8C01892BE9F490E080E072DD8C
:10534000F501D182C082F30191828082C8010F9061
:105350000F900F900F90DF91CF911F910F91FF90C1
:10536000EF90DF90CF90BF90AF909F908F907F9005
:105370006F90089590E080E055DDF5011182108274
:10538000F30111821082C6012FDB09EF1FEFDECF80
:105390000FEF1FEFDBCF06EF1FEFD8CF0097A1F085
:1053A0004115510589F02115310571F0F901369645
:1053B0006E177F0748F0DC012D933C93DA01ED93E3
:1053C000FC9390E080E008958FEF9FEF0895AF92F7
:1053D000BF92CF92DF92EF92FF920F931F93CF93E2
:1053E000DF93009709F45FC04115510509F45BC0D4
:1053F0006530710508F457C020912E07C7EFDFEF25
:10540000222391F1DC01CD90DC9011971296ED9161
:10541000FC9196012A5F3F4FC9EFDFEF2617370750
:1054200019F5C0912F07D0913007209749F521E059
:1054300030E03093300720932F077A018C01F093EE
:105440003207E09331075601B4E0AB0EB11CB50151
:1054500076DE0A0D1B1DF80120813181821793072A
:1054600029F5D701CD92DC92CE01DF91CF911F912A
:105470000F91FF90EF90DF90CF90BF90AF90089585
:1054800020913107309132072F5F3F4FCCEFDFEF94
:10549000E217F30790F2CBEFDFEF2E173F0768F22A
:1054A000D0E0C0E0CACFCFEFDFEFDECFC3EFDFEF5A
:1054B000DBCF84E090E0089582E090E008958CEFE7
:1054C0009FEF089580E290E00895109234071092C3
:1054D0003307109232071092310710923007109262
:1054E0002F0790E080E008959093CC028093CB0248
:1054F000089580912E07882391F0C5DD009789F4E7
:10550000109234071092330710923207109231072D
:105510001092300710922F0710922E07089590E0F6
:1055200080E00895009749F06115710531F0FC01A4
:1055300011821082FB01118210820895F3CF26E0C0
:1055400030E040E855E260E070E090E080E008D0B4
:1055500061E08DE00E94223360E08DE00C945E33C8
:105560008130910571F01CF4892B39F00895823057
:10557000910551F0039759F0089582E497E00C9457
:105580007D348FED97E0FBCF8CE798E0F8CF89E191
:1055900099E0F5CF1F920F920FB60F9211240BB620
:1055A0000F922F933F934F935F936F937F938F93BC
:1055B0009F93AF93BF93EF93FF938EE19BEF9093F5
:1055C0002501809324018091370790913807019736
:1055D00021F461E08DE00E945E33BFD0FF91EF9136
:1055E000BF91AF919F918F917F916F915F914F91FB
:1055F0003F912F910F900BBE0F900FBE0F901F90F9
:1056000018958EE19BEF9093250180932401A3E7E9
:10561000B0E08C918E7F8C93E0E2F1E080818C7F12
:105620008083E1E2F1E08081877E808380818360F6
:10563000808380818B7F80838C9181608C9308959F
:10564000E3E7F0E0808190819E7F908381700895F0
:1056500081E0089510923507089568EE73E080E0C8
:1056600090E01ED690E080E0089526E030E040E033
:1056700052EC61E070E090E080E072DF82E497E05D
:105680000E94B333892B29F082E497E00E94CD3346
:10569000F5CF90E080E00895CF92DF92EF92FF92F5
:1056A0000F931F93CF93DF936B017A01E901198266
:1056B000188282E497E00E94B333892B79F1860146
:1056C000CC24C39482E0D82E80913507811111C07B
:1056D00082E497E00E94CD330297B1F7C09235077C
:1056E000F801D1928F0188819981019699838883ED
:1056F000EBCF888199818E159F0580F482E497E035
:105700000E94CD338F3F9807A1F3F80181938F0159
:1057100088819981019699838883EBCF90E080E01E
:10572000DF91CF911F910F91FF90EF90DF90CF907D
:1057300008950F931F93CF93DF93EA01890182E4C9
:1057400097E00E940D37F801D183C08390E080E09C
:10575000DF91CF911F910F9108958091360791E0CD
:10576000980F90933607882349F021E030E030937A
:1057700038072093370780933607089578940E945E
:10578000BA04F894809136078150F5CF0F931F9398
:10579000CF93DF931092450A1092440AB7D5CFDE1B
:1057A000C091E302D091E4021982188260EA7FE09E
:1057B00080E090E00E94800470E060E090E080E093
:1057C0000E94FB02009709F042C00E94CF09F894A2
:1057D0007894BE0167537F4F8A819B810E94FE02AD
:1057E000892B71F46FEF7FEFCB010E948F030E9432
:1057F0007A04882329F081E0FE01E153FF4F808382
:10580000F894FFDE0E947D04882311F080E00BC035
:105810000E947A048111FACF81E0FE01E153FF4F2B
:1058200090819111F3CF8093440A78940E94BB1227
:105830008C017894C153DF4F8091440A81110CC0D0
:105840000E94B90B0E945E04F89490E080E0DF9122
:10585000CF911F910F9108950E945B040E947D04D7
:105860008823D9F081E08093450A9091450A81E030
:10587000911180E08093440A8091450A8111E0DE15
:105880000130110529F40E94BB12892B09F4E2DED4
:105890000E94BB128C01DCDECFCF0E947A04811102
:1058A000E1CF81E098819111DECF80E0DCCF5058CC
:1058B000BB27AA270ED0FAC1EBD130F0F0D120F0EF
:1058C00031F49F3F11F41EF4E0C10EF4E095E7FBC4
:1058D000ADC1E92FFCD180F3BA17620773078407C3
:1058E000950718F071F49EF52BC20EF4E0950B2E7F
:1058F000BA2FA02D0B01B90190010C01CA01A00122
:105900001124FF27591B99F0593F50F4503E68F17C
:105910001A16F040A22F232F342F4427585FF3CFBD
:10592000469537952795A795F0405395C9F77EF48E
:105930001F16BA0B620B730B840BBAF09150A1F0D7
:10594000FF0FBB1F661F771F881FC2F70EC0BA0F5D
:10595000621F731F841F48F4879577956795B795E5
:10596000F7959E3F08F0B3CF9395880F08F09927DD
:10597000EE0F97958795089535D108F481E0089545
:105980000CD094C18CD140F083D130F021F45F3F32
:1059900019F04CC15111D5C178C199D198F399230F
:1059A000C9F35523B1F3951B550BBB27AA276217E3
:1059B0007307840738F09F5F5F4F220F331F441F28
:1059C000AA1FA9F333D00E2E3AF0E0E830D0915060
:1059D0005040E695001CCAF729D0FE2F27D0660F4D
:1059E000771F881FBB1F261737074807AB07B0E88C
:1059F00009F0BB0B802DBF01FF2793585F4F2AF0A2
:105A00009E3F510568F012C19CC15F3FECF3983E88
:105A1000DCF3869577956795B795F7959F5FC9F7FE
:105A2000880F911D9695879597F90895E1E0660F87
:105A3000771F881FBB1F621773078407BA0720F000
:105A4000621B730B840BBA0BEE1F88F7E095089569
:105A500046D188F09F5790F0B92F9927B751A0F001
:105A6000D1F0660F771F881F991F1AF0BA95C9F7F2
:105A700012C0B13081F064D1B1E0089561C1672FE7
:105A8000782F8827B85F39F0B93FCCF386957795A2
:105A90006795B395D9F73EF490958095709561958B
:105AA0007F4F8F4F9F4F0895E89409C097FB3EF4B6
:105AB00090958095709561957F4F8F4F9F4F99235B
:105AC000A9F0F92F96E9BB279395F69587957795D9
:105AD0006795B795F111F8CFFAF4BB0F11F460FF99
